:020000040800F2
:10000000880B002001010008816C000815540008CD
:10001000656A0008310E00084583000800000000F2
:10002000000000000000000000000000AD730008A8
:10003000F50F000800000000D572000829740008C0
:100040001B0100081B0100081B0100081B01000820
:100050001B0100081B0100081B0100081B01000810
:100060001B0100081B0100081B010008650F0008A8
:100070001B010008750F0008850F0008950F000888
:100080001B0100081B0100088D0B00081B01000864
:100090001B0100081B0100081B0100081B010008D0
:1000A0001B0100081B0100081B0100081B010008C0
:1000B000C57400081B010008D57400081B01000866
:1000C0001B0100081B0100081B0100081B010008A0
:1000D0007D7300081B0100081B010008F581000862
:1000E0001B0100081B0100081B010008DFF80CD0F1
:1000F00000F0D2FC004800472D840008880B002047
:100100000648804706480047FEE7FEE7FEE7FEE7B1
:10011000FEE7FEE7FEE7FEE7FEE7FEE7C174000844
:10012000ED00000840EA01039B0703D009E008C97D
:10013000121F08C0042AFAD203E011F8013B00F8AC
:10014000013B521EF9D27047D2B201E000F8012BF8
:10015000491EFBD270470022F6E710B513460A4647
:1001600004461946FFF7F0FF204610BD10B50022E7
:1001700000E0521C835C8C5CA34201D1002BF8D1BF
:10018000D8B2E1B2401A10BDCBB203E00178994277
:1001900003D0401C521EF9D20020704770B50646AD
:1001A00009F086F8046805460A220021304600F06E
:1001B00077FB2C6070BDF0B480EA0102D40F4200DE
:1001C000B2EB410F02D20246084611464A0042D025
:1001D000C30DDDB2C1F3C752AD1A202D35DAC1F31C
:1001E000160141F4000204B15242C5F1200602FAA0
:1001F00006F12A411044B3EBD05F23D0C4B1012DE6
:10020000A0EBC35009DCF0BC4FF0004202EAC3523D
:10021000DBB200F5000000F084BB400000F180700C
:1002200000EBC350A0F1807040EAD170490009E0B2
:10023000490841EAC071A0EBC35000F50000400836
:1002400000EBC350F0BC00F063BB6142012202EB43
:100250004101001BF6E7F0BC704781F00041AAE7BE
:1002600080F00040A7E780EA010210B502F00043E9
:10027000400022D04A001FD0010E01EB1261C0F3F2
:100280005600C2F3560240F4000042F40002A0FB04
:10029000022000047F39140400D0401C50EA1240B0
:1002A00001D44000491EC2B20C0604EBD010401C21
:1002B0004008802A02D003E0002010BD20F0010099
:1002C000002900DA0020184310BD30B480EA010292
:1002D00002F0004530F0004221F0004013D090B110
:1002E000C30DD40DC2F31601C0F31600E41A41F495
:1002F000000140F400027D34914201D3641C00E00F
:100300004900002C02DA30BC002070474FF4000096
:100310000023914201D3891A034340084FEA410167
:10032000F7D151B1914202D14FF0004105E002D224
:100330004FF0010101E06FF0010103EBC4502844CC
:1003400030BC00F0E5BA2DE9FE4F804681EA03009B
:10035000C00F0C46009021F0004123F00045B8EB9F
:100360000200A94105D24046214690461C460B4654
:10037000024623F00040104347D0270DC7F30A0080
:10038000C3F30A510290401A019040286BDAC3F37C
:10039000130040F4801B0098924620B10023D2EB5A
:1003A000030A63EB0B0B01985946C0F1400250461B
:1003B00000F045FA06460D4650465946019A00F0AF
:1003C0005DFA10EB08006141002487EA115284EACB
:1003D000E7731A4340D0009A62B3019A012A4FEAA8
:1003E000075215DC001B61EB02014FF0004202EAEC
:1003F0000752CDE90042001C41F5801132462B46E0
:1004000000F0CCFA03B0BDE8F08F40462146F9E792
:10041000001B61EB0201001C41F5801300185B41D9
:100420002018A2F5001747EB030140EAD570B61972
:100430006D4111E06D084FEA360645EAC0754FEA96
:100440000752001B61EB0201001C41F580114908B5
:100450004FEA30000019514132462B4603B0BDE847
:10046000F04F00F08CBA0098012240000023D0EB3E
:10047000020263EBE073009821464FEAE074B8EBA8
:10048000000061EB0401E9E783F000435BE781F0E2
:10049000004158E72DE9FE4F81EA030404F00044CF
:1004A00021F0004100944FF0000B23F0004350EA8C
:1004B00001045ED052EA03045BD0C3F30A54C1F3D3
:1004C0000A552C44A4F2F3340194A0FB0254C1F366
:1004D000130141F48011C3F3130343F4801301FBB0
:1004E000024400FB034E840A970A44EA815447EA17
:1004F0008357A4FB076802958D0A05FB07854FEA21
:10050000932C04FB0C542705029D4FEA065847EA3A
:100510001637B5EB08056EEB070C870E920E47EA0F
:10052000811742EA8312A7FB0201B6EB0B0164EBD1
:1005300000042B0D43EA0C335E1844EB1C50DA46E2
:100540005146E7FB0201C5F313044FEA0B3343EABC
:1005500014534FEA0432019C43EA0603A4F10C044D
:100560000294009CCDE900B400F018FA03B0BDE895
:10057000F08F00200146F9E72DE9F04D81EA0304F0
:1005800004F0004B21F0004514464FF0000A23F020
:10059000004150EA050220D054EA01021DD0C5F303
:1005A0000A570246C5F31303C1F31300C1F30A56F9
:1005B00040F4801543F48013A7EB0608101BD646C1
:1005C00008F2FD3873EB050002D308F1010801E0E1
:1005D00092185B41B8F1000F03DA00200146BDE834
:1005E000F08D00204FF48011064684460EE0171B64
:1005F00073EB050705D3121B63EB050306434CEAB7
:10060000010C49084FEA300092185B4150EA01079B
:10061000EDD152EA030012D082EA040083EA050118
:10062000084305D0101BAB4106D20122002306E08F
:1006300000224FF0004302E06FF0010253101AEB6A
:1006400006004CEB085110EB0A0041EB0B01BDE832
:10065000F04D00F094B9002801DBC0F10040002902
:1006600001DBC1F10041814201D801207047002027
:100670007047002801DBC0F10040002901DBC1F117
:100680000041814201D201207047002070470028BC
:1006900001DBC0F10040002901DBC1F100418142D2
:1006A00001D30120704700207047002801DBC0F112
:1006B0000040002901DBC1F10041814201D9012044
:1006C000704700207047C10F80EAE0700844CA07F5
:1006D0009623002100F025B996230022114600F050
:1006E00020B900F0004220F00040C10DC0F3160018
:1006F00040F400007F2901DA00207047962903DCCE
:10070000C1F19601C84001E096398840002AF4D032
:100710004042704770B5C1F30A5201F00045002411
:10072000C1F3130140F2FF3341F480119A4201DA20
:10073000002070BD40F233439A42A2F2334203DC00
:10074000524200F08BF800E090402C43F1D0404240
:1007500070BD00F0004230F000400AD0C10D01F53C
:100760006071C0F3160042EA0151C208400711430C
:10077000704700200146704701F0004330B421F07B
:10078000004150EA010206D00A0DA2F56072C1F3E1
:100790001301002A02DC30BC00207047440F44EAF9
:1007A000C104C100E01830BC00EBC25000F0B0B88A
:1007B00030B50B46014600202022012409E021FA31
:1007C00002F59D4205D303FA02F5491B04FA02F52E
:1007D0002844151EA2F10102F1DC30BD2DE9F05FC5
:1007E0000546002092469B468846064681464024A0
:1007F0001BE0284641464746224600F02FF8534664
:100800005A46C01A914110D311461846224600F0AC
:1008100016F82D1A67EB01084F46224601200021E9
:1008200000F00DF817EB00094E41201EA4F1010461
:10083000DFDC484631462A464346BDE8F09F202A81
:1008400004DB203A00FA02F1002070479140C2F127
:10085000200320FA03F3194390407047202A04DB59
:10086000203A21FA02F00021704721FA02F3D04029
:10087000C2F120029140084319467047202A06DB46
:10088000CB17203A41FA02F043EAE07306E041FA5E
:1008900002F3D040C2F1200291400843194670474C
:1008A0002DE9F04791460F4680460446002614F88D
:1008B000015B2DB100F008F90068405DC007F6D17A
:1008C0002B2D02D02D2D18D0641E4A4639462046C5
:1008D00000F0FEF827B13968A14201D1C7F80080C5
:1008E00071054FF002040BD54042002803DD08F0EB
:1008F000DFFC0460A007BDE8F08746F48066E4E70B
:100900000028F8DA08F0D4FC04606FF00040F2E749
:100910000029A8BF7047401C490008BF20F0010013
:10092000704710B4B0FA80FC00FA0CF050EA0104F1
:1009300004BF10BC704749B1CCF1200421FA04F483
:1009400011FA0CF118BF012121430843A3EB0C015C
:10095000CB1D4FEA00614FEA102042BF002010BCBF
:10096000704700EBC35010440029A4BF10BC70476F
:10097000401C490008BF20F0010010BC704710B5B2
:10098000141E73F1000408DA401C41F100019218B2
:100990005B411A4301D120F0010010BD2DE9F04D5B
:1009A00092469B4611B1B1FA81F202E0B0FA80F2B0
:1009B00020329046FFF743FF04460F4640EA0A0004
:1009C00041EA0B0153465A46084313D0114653EAF5
:1009D000010019D0C8F140025046FFF73FFF05461D
:1009E0000E46504659464246FFF729FF084305D0B8
:1009F000012004E020463946BDE8F08D0020054383
:100A000046EAE0762C4337430A986305E40AA0EBF4
:100A100008000022FD0A44EA47540A3002D50020AB
:100A20000146E9E7010510196941DDE908450019AA
:100A30006941BDE8F04DA2E7C1F30A52C1F31301C9
:100A400040F2FF3341F480119A4202DA002001465D
:100A5000704740F233439A42A2F2334202DC5242E0
:100A6000FFF7FCBEFFF7EBBE30B5041E71F10004CA
:100A700004DB4FF00044404264EB0101141E73F1AB
:100A8000000405DB1C464FF00043524263EB0403B5
:100A9000994208BF904230BD1CB5094800900948F2
:100AA00001900546009C06E0E06840F0010394E8F0
:100AB000070098471034AC42F6D3FFF71BFB000049
:100AC000D0B20008F0B2000800487047849C0008CB
:100AD0002DE9F05F82460078002715468B460AF123
:100AE0000104B946302801D09DB113E014F8010B80
:100AF0000127782803D0582801D045B10AE00DB16C
:100B0000102D07D10027102514F8010B02E008254D
:100B100000E00A250026B0460EE005FB080005FBB4
:100B200006F1012701EB10461FFA80F8B6F5803F69
:100B300000D3B94614F8010B294600F018F8002834
:100B4000EBDABBF1000F05D00FB1641E00E0544694
:100B5000CBF80040B9F1000F06D008F0A9FB022144
:100B60000160C81EBDE8F09F48EA0640FAE73A284F
:100B700000D2303820F02002412A01D3A2F1370000
:100B8000884201D34FF0FF307047000080B540F23B
:100B90009000C2F2000000F005FE80BD80B584B078
:100BA000029000200190029800688068C00770B32E
:100BB000FFE702980168886820F00100886001F072
:100BC0004BFF0190FFE7029800688068C007E8B11A
:100BD000FFE701F041FF0199401A032815D3FFE711
:100BE000029800688068C00770B1FFE70299886AC0
:100BF00040F0100088620299C86A40F00100C862A3
:100C000001208DF80F0006E0FFE7DCE7FFE700209A
:100C10008DF80F00FFE79DF80F0004B080BD0000C5
:100C200080B582B001900198406A00900098806A77
:100C300010F0500F28D1FFE70099886A40F4007047
:100C4000886200980068806800F46020B0F5602F2A
:100C500016D1FFE70098007B90B9FFE70099886AFA
:100C600020F4807088620098806AC004002806D44E
:100C7000FFE70099886A40F001008862FFE7FFE71C
:100C8000009800F073FD05E00098006A016B019880
:100C90008847FFE702B080BD80B582B0019001981F
:100CA000406A00900099886A40F04000886200998C
:100CB000C86A40F00400C862009800F06FFD02B0FE
:100CC00080BD000080B582B001900198406A00901C
:100CD000009800F05FFD02B080BD000080B584B0D8
:100CE0000290002001900090029800688068C00780
:100CF000002849D1FFE702980168886840F00100A8
:100D0000886040F21400C2F2000000684DF6836172
:100D1000C4F21B31A0FB0110800C0090FFE700988B
:100D200020B1FFE7009801380090F8E701F094FE49
:100D30000190FFE7029800688068C00718BBFFE7D2
:100D400001F08AFE0199401A03281BD3FFE702989D
:100D500000688068C007A0B9FFE70299886A40F080
:100D6000100088620299C86A40F00100C862FFE77B
:100D70000299002081F82400FFE701208DF80F0080
:100D800006E0FFE7D6E7FFE700208DF80F00FFE75A
:100D90009DF80F0004B080BD80B540F26C00C2F237
:100DA0000000C1784FF4FA7C01FB0CF145F62942B2
:100DB000C0F28F22A1FB023140F23833C2F20003AD
:100DC000D3F800E0CEF83810017901FB0CF1A1FB5B
:100DD00002E1D3F800E0CEF83C10417901FB0CF1C0
:100DE000A1FB02C11B685963C17963235943A1FB6D
:100DF000023140F2A823C2F200031B6859638178D4
:100E00004FF4E1535943A1FB022140F2F022C2F218
:100E10000002126811648279002A18BF012240F68C
:100E20000040C4F20100082101F0FEFD80BD000079
:100E3000FFE7FEE780B582B000208DF80600232092
:100E40000A21052204F092FD8DF806009DF80600A7
:100E500020B1FFE701208DF8070003E000208DF8A6
:100E60000700FFE79DF8070002B080BD80B582B0A3
:100E7000232050210DF1060204F09EFB20B1FFE774
:100E800000208DF8070004E09DF806008DF80700AB
:100E9000FFE79DF8070002B080BD000080B584B078
:100EA00002900191232009210DF1030204F084FB3B
:100EB00020B1FFE701208DF80F004FE00198E8B363
:100EC000FFE79DF8030000F001020199087800F0A7
:100ED000FE00104408709DF803200199087802F084
:100EE000020200F0FD00104408709DF803200199F3
:100EF000087802F0040200F0FB00104408709DF82E
:100F000003200199087802F0080200F0F70010446D
:100F100008709DF803200199087802F0100200F093
:100F2000EF00104408709DF803200199087802F042
:100F3000E00200F01F0010440870FFE70198421C17
:100F40002320502104F038FB20B1FFE703208DF867
:100F50000F0003E000208DF80F00FFE79DF80F0061
:100F600004B080BD80B540F2C000C2F2000001F0C4
:100F70003BF880BD80B540F28C10C2F2000001F059
:100F800033F880BD80B540F20410C2F2000001F0D9
:100F90002BF880BD80B540F24810C2F2000001F08D
:100FA00023F880BD84B003900291019200930398CE
:100FB000C16B026C01209040486000980399096859
:100FC000486003984068102809D1FFE70198039909
:100FD00009688860029803990968C86008E0029867
:100FE000039909688860019803990968C860FFE758
:100FF00004B070477047000080B58AB040F284406A
:10100000C2F20000006840684FF08441FFF73FFBE8
:10101000002868D1FFE740F28440C2F20000006877
:1010200040680021C4F2B001FFF723FB68B9FFE775
:1010300040F28440C2F20000006840684FF08341F3
:10104000FFF709FB00284ED1FFE740F28440C2F2CF
:1010500000000068C0680021C4F25C21FFF717FBA4
:10106000002840D1FFE740F28440C2F2000000684F
:1010700000680021C4F2A021FFF709FB98BBFFE73D
:1010800040F28440C2F20000006880680021C4F28F
:10109000C001FFF7FCFA30BBFFE740F28440C2F228
:1010A0000000006840684FF08341FFF7E2FA40B962
:1010B000FFE740F24A00C2F200000088642812D024
:1010C000FFE740F24100C2F200000078002840F043
:1010D000AA80FFE740F25D00C2F20000007801281C
:1010E00040F0A180FFE740F26C01C2F20001002055
:1010F0000490887188705022CA700871487140F25B
:101100008440C2F20000016801200875FFF744FE28
:1011100005F0EEFD04994BF29702C0F60002102391
:101120000993084606F072F80498099B4BF2A20254
:10113000C0F600020221009106F068F80099099BB0
:1011400040F22C52C2F20002202006F05FF840F27A
:101150005000C2F200000068FFF7FBFA02460B469F
:1011600040F25B50C2F2000003904BF2B401C0F6B3
:10117000000108F089F840F25800C2F2000000684F
:10118000FFF7E7FA02460B4640F26B50C2F200004E
:1011900001904BF2E201C0F6000108F075F840F250
:1011A0004400C2F200000068FFF7D3FA02460B4683
:1011B00040F24B50C2F2000005904BF2D701C0F64E
:1011C000000108F061F840F27C50C2F200000068B3
:1011D000FFF7BFFA02460B4640F23B50C2F2000056
:1011E00008904BF2ED01C0F6000108F04DF8019AAD
:1011F000099B04980421029106F008F80299039AC9
:10120000099B4820069006F001F80498059A099B6E
:101210000621079105F0FAFF06980799089A099B9D
:1012200005F0F4FFFFE70AB080BD000081B0EFF3E6
:10123000108072B60090FFE7FEE7000081B00090DA
:1012400040F28841C2F200010020C86142F2100160
:10125000C4F20201086840F004000860086840F029
:101260004000086001B0704781B0009040F28841B2
:10127000C2F200010020C86142F21001C4F2020172
:10128000086840F002000860009842F21402C4F2BC
:1012900002021060086840F04000086001B070472A
:1012A00082B00190ADF8021040F28841C2F2000114
:1012B0000020C86142F21001C4F20201086840F047
:1012C00001000860BDF802000199088002B0704773
:1012D00081B000200090012040B9FFE742F21C00DD
:1012E000C4F202000068C00748B915E042F20C00E1
:1012F000C4F202000068C00600280DD5FFE740F2E6
:101300008841C2F20001C86940F00200C86100983B
:1013100040F010000090FFE7012040B9FFE742F2E3
:101320001C00C4F202000068C00748B915E042F290
:101330000C00C4F202000068400700280DD5FFE74A
:1013400040F28841C2F20001C86940F00100C86162
:10135000009840F004000090FFE7002040B9FFE74C
:1013600042F21C00C4F202000068C00750B91CE041
:1013700042F20C00C4F20200006840F2011108427F
:1013800013D0FFE740F28841C2F20001C86940F083
:101390000400C861FFE742F21C01C4F202010868C0
:1013A00020F001000860FFE7FFE7FFE7009840F248
:1013B0000111884209D1FFE742F21C01C4F2020187
:1013C000086820F00100086006E0009842F20C0175
:1013D000C4F202010860FFE7FFE701B070470000B8
:1013E00080B584B0029001F037FB0190FFE742F234
:1013F0000C00C4F202000068C007A8B1FFE7029821
:10140000013080B1FFE7029840B1FFE701F024FB13
:101410000199401A0299884204D9FFE703208DF808
:101420000F0065E0FFE7E2E7012040B9FFE742F285
:101430001C00C4F202000068C00748B911E042F283
:101440000C00C4F2020000688006002809D5FFE7FE
:10145000FFE742F20C01C4F2020120200860FFE71E
:10146000FFE7012040B9FFE742F21C00C4F202008E
:101470000068C00790BB08E042F20C00C4F2020012
:101480000068C006002829D4FFE7002040B9FFE724
:1014900042F21C00C4F202000068C007F0B909E083
:1014A00042F20C00C4F20200006840F2011108424E
:1014B00014D1FFE7012040B9FFE742F21C00C4F25B
:1014C00002000068C00748B90EE042F20C00C4F206
:1014D000020000684007002806D5FFE7FFF7F8FE86
:1014E00001208DF80F0003E000208DF80F00FFE7CA
:1014F0009DF80F0004B080BD80B586B0059001F066
:10150000BDF800200490039002900190019005998D
:10151000039101210491009001A8694600F088FF21
:1015200001F00CF806B080BD80B586B0059004913E
:10153000ADF80E2001F0A2F80020ADF80C00FFE796
:10154000BDF80C00BDF80E1088422CDAFFE70499B4
:10155000BDF80C00095C01910130BDF80E10884205
:1015600008DAFFE70499BDF80C000844407800024F
:10157000009002E000200090FFE7019800990843E6
:10158000ADF80A000598BDF80C100144BDF80A201A
:101590000120002300F0DCFFFFE7BDF80C00023063
:1015A000ADF80C00CCE700F0C9FF06B080BD00002C
:1015B00081B0009001B0704785B003900291002087
:1015C0008DF807000090FFE7039890F824000128A9
:1015D00004D1FFE702208DF81300C3E00399012036
:1015E00081F82400FFE7FFE702984068062812D838
:1015F000FFE703980068406B029A1168526802EB9B
:101600008202053A1F23934098439140084303996F
:101610000968486329E0029840680C2812D8FFE75F
:1016200003980068006B029A1168526802EB82020C
:10163000233A1F2393409843914008430399096834
:10164000086311E003980068C06A029A1168526842
:1016500002EB8202413A1F23934098439140084392
:1016600003990968C862FFE7FFE7029800680A2843
:1016700012D3FFE703980068C06802990A68896876
:1016800002EB42021E3A07239340984391400843DD
:1016900003990968C86010E003980068006902991E
:1016A0000A68896802EB42020723934098439140FD
:1016B0000843039909680861FFE702980068102849
:1016C00005D0FFE702980068112840D1FFE7039892
:1016D000006842F20041C4F2010188422DD1FFE7C7
:1016E0000398006880680002002825D4FFE703986B
:1016F0000168886840F4000088600298006810283B
:1017000019D1FFE740F21400C2F2000000684DF664
:101710008361C4F21B31A0FB0110800C00EB800040
:1017200040000090FFE7009820B1FFE700980138E3
:101730000090F8E7FFE7FFE708E00399886A40F0C8
:101740002000886201208DF80700FFE7FFE7FFE730
:101750000399002081F82400FFE79DF807008DF829
:101760001300FFE79DF8130005B0704781B00090AB
:10177000009840F29001C2F20001884207D1FFE7D1
:1017800040F24001C2F2000101200870FFE701B001
:101790007047000081B0009001B0704781B00090A8
:1017A00001B0704780B584B003900398006800686A
:1017B000029003980068406801909DF8040080063C
:1017C000002841D5FFE79DF80800800700283AD59A
:1017D000FFE70398806AC006002806D4FFE7039954
:1017E000886A40F400708862FFE7039800688068A8
:1017F00000F46020B0F5602F1CD1FFE70398007B58
:10180000C0B9FFE703980168486820F020004860ED
:101810000399886A20F4807088620398806AC00403
:10182000002806D4FFE70399886A40F00100886227
:10183000FFE7FFE70398FFF799FF039801686FF050
:1018400012000860FFE7FFE79DF80400000600288B
:1018500051D5FFE79DF80800400700284AD5FFE76B
:101860000398806AC006002806D4FFE70399886AB7
:1018700040F400508862FFE703980068806800F435
:10188000E040B0F5E04F14D0FFE7039800684068EF
:101890004005002825D4FFE703980068806800F41D
:1018A0006020B0F5602F1CD1FFE70398007BC0B922
:1018B000FFE703980168486820F0800048600399BA
:1018C000886A20F4805088620398806AC0050028E6
:1018D00006D4FFE70399886A40F001008862FFE7B9
:1018E000FFE70398FFF764FE039801686FF00C00B0
:1018F0000860FFE7FFE79DF804004006002814D5C4
:10190000FFE79DF80800C00770B1FFE70399886AF8
:1019100040F480308862039800F014F9039801685D
:101920006FF001000860FFE7FFE704B080BD000032
:1019300080B588B0069000208DF8170004900390C1
:101940000290069820B9FFE701208DF81F00F4E00F
:101950000698806830B1FFE70698007D08B1FFE780
:10196000FFE7FFE70698806A50B9FFE70699002075
:10197000C862069981F82400069800F0E7F8FFE7AE
:101980000698FFF70BF98DF817000698806AC006D5
:10199000002800F1C480FFE79DF81700002840F000
:1019A000BE80FFE70698806A40F0020020F488506D
:1019B0000699886206994868CA691043097B40EA1B
:1019C0004101039808430390069881680120B1F50E
:1019D000807F019008D0FFE7069880680138B0FA50
:1019E00080F040090190FFE701990498CA0740F48C
:1019F0008071002A18BF084604900698007D0128CF
:101A00001ED1FFE70698007B70B9FFE70698816951
:101A10004EF20000CFF6FF7000EB4130049908430E
:101A200040F4006004900AE00699886A40F02000C3
:101A300088620699C86A40F00100C862FFE7FFE7C4
:101A400006980068406820F46940049908430699A4
:101A5000096848600698006880684FF2FD71CFF60B
:101A6000E17108400399084306990968886006985F
:101A700081680120B1F5807F009008D0FFE70698CB
:101A800080680138B0FA80F040090090FFE70098C4
:101A900000F00100002818BF4FF48070B0F5807F7F
:101AA00009D1FFE7069801690020CFF6F07000EB3E
:101AB00001500290FFE706980068C06A20F47000A9
:101AC0000299084306990968C86206980068806808
:101AD00040F6FE61CFF61F710840039988420CD191
:101AE000FFE706990020C8620698806A40F001006E
:101AF00020F002000699886210E00698806A40F0A3
:101B0000100020F00200069988620699C86A40F029
:101B10000100C86201208DF81700FFE708E0069970
:101B2000886A40F01000886201208DF81700FFE7F6
:101B30009DF817008DF81F00FFE79DF81F0008B003
:101B400080BD000081B0009001B0704780B58AB0C0
:101B50000990002008900790069005900998006869
:101B600042F20041C4F2010188425AD1FFE7FFE787
:101B700041F21800C4F20200016841F400710160F2
:101B8000006800F4007004900498FFE7FFE741F25A
:101B90001800C4F20200016841F00401016000680D
:101BA00000F0040003900398FFE70720059003204E
:101BB000069040F60000C4F2010005A900F08CFD7B
:101BC00040F2C000C2F2000002900821C4F20201FB
:101BD00001600021416081608022C2604FF4807208
:101BE00002614FF4806242618161C16100F040FB9B
:101BF00018B1FFE7FFF71AFBFFE7FFE7099840F28C
:101C0000C001C2F20001016209984862FFE7122098
:101C100001900022114600F0BBFF019800F0AEFFDA
:101C2000FFE70AB080BD000080B586B00490039144
:101C3000029200208DF807000498006842F20041EB
:101C4000C4F20101884209D0FFE70498006842F617
:101C50000001C4F20101884209D1FFE742F20440C9
:101C6000C4F20100006800F47020009002E000203F
:101C70000090FFE70098002840F0DC80FFE7FFE7D6
:101C8000049890F82400012804D1FFE702208DF881
:101C90001700D8E00499012081F82400FFE7FFE74E
:101CA0000498FFF71BF88DF807009DF8070000283F
:101CB00040F0B880FFE70498806A40F4807040F6F6
:101CC00001618843049988620498006842F6000123
:101CD000C4F20101884209D1FFE742F20440C4F294
:101CE0000100006810F4702F03D018E00020B0B994
:101CF000FFE70499886A20F48010886204980068DD
:101D000040684005002809D5FFE70498806A40F440
:101D1000805020F4005004998862FFE72CE0049979
:101D2000886A40F4801088620498006842F200419A
:101D3000C4F20101884209D0FFE70498006842F626
:101D40000001C4F20101884209D1FFE742F20440D8
:101D5000C4F2010000684005002803D40BE0012014
:101D600048B9FFE70498806A40F4805020F400509E
:101D700004998862FFE7FFE70498806AC00400289E
:101D800006D5FFE70499C86A20F00600C86203E0A0
:101D900004990020C862FFE7FFE70499002081F85A
:101DA0002400FFE70498016A40F62140C0F60000D5
:101DB00088620498016A40F6C540C0F60000C86217
:101DC0000498016A40F69940C0F600000863049840
:101DD00001686FF00200086004980168886840F4A8
:101DE0008070886004980168006A4C31039A029BF5
:101DF00000F096FA04980068806800F46020B0F55E
:101E0000602F07D1FFE704980168886840F4A000BC
:101E1000886006E004980168886840F48010886053
:101E2000FFE706E0FFE70499002081F82400FFE7C0
:101E3000FFE703E001208DF80700FFE79DF80700AA
:101E40008DF81700FFE79DF8170006B080BD000071
:101E500083B0019000208DF80300019890F82100D4
:101E600002280DD0FFE7019904208863FFE701995C
:101E7000002081F82000FFE701208DF80B0021E011
:101E800001980168086820F00E0008600198016858
:101E9000086820F0010008600198C16B026C012005
:101EA00090404860FFE70199012081F82100FFE799
:101EB0000199002081F82000FFE79DF803008DF8CC
:101EC0000B00FFE79DF80B0003B0704780B588B0AA
:101ED000079000208DF81B00079890F82100022839
:101EE00007D0FFE707990420886301208DF81B00C5
:101EF00076E007980168086820F00E0008600798EF
:101F00000168086820F0010008600798006808214F
:101F1000C4F20201884203D1FFE70120059047E0A7
:101F2000079800681C21C4F20201884203D1FFE730
:101F30001020049039E0079800683021C4F20201B3
:101F4000884204D1FFE74FF4807003902AE007989D
:101F500000684421C4F20201884204D1FFE74FF433
:101F6000805002901BE0079800685821C4F20201DB
:101F7000884204D1FFE74FF4803001900CE00798CD
:101F800001686C22C4F202024FF08070914208BFD7
:101F90004FF480100190FFE701980290FFE702984C
:101FA0000390FFE703980490FFE704980590FFE78C
:101FB00005980421C4F2020108600799012081F804
:101FC0002100FFE70799002081F82000FFE707982C
:101FD000406B20B1FFE70798416B8847FFE7FFE7B9
:101FE0009DF81B0008B080BD80B58EB00D900D9897
:101FF000C06B00680C900D98006800680B900C98FE
:102000000D99096CC8404007002875D5FFE79DF879
:102010002C00400700286FD5FFE70D980068006886
:102020008006002807D4FFE70D980168086820F0B3
:1020300004000860FFE70D9800680821C4F202015F
:10204000884203D1FFE704200A9047E00D9800681A
:102050001C21C4F20201884203D1FFE7402009900D
:1020600039E00D9800683021C4F20201884204D1A1
:10207000FFE74FF4806008902AE00D980068442143
:10208000C4F20201884204D1FFE74FF48040079078
:102090001BE00D9800685821C4F20201884204D167
:1020A000FFE74FF4802006900CE00D9801686C2249
:1020B000C4F202024FF08060914208BF4FF48000EA
:1020C0000690FFE706980790FFE707980890FFE75C
:1020D00008980990FFE709980A90FFE70A980421F9
:1020E000C4F2020108600D98C06A20B1FFE70D98A4
:1020F000C16A8847FFE7B8E00C980D99096CC840A1
:102100008007002840F18080FFE79DF82C008007C1
:10211000002879D5FFE70D98006800688006002840
:102120000BD4FFE70D980168086820F00A000860EA
:102130000D99012081F82100FFE70D980068082122
:10214000C4F20201884203D1FFE70220059047E074
:102150000D9800681C21C4F20201884203D1FFE7F8
:102160002020049039E00D9800683021C4F202016B
:10217000884204D1FFE74FF4007003902AE00D98E5
:1021800000684421C4F20201884204D1FFE74FF401
:10219000005002901BE00D9800685821C4F2020123
:1021A000884204D1FFE74FF4003001900CE00D9815
:1021B00001686C22C4F202024FF00070914208BF25
:1021C0004FF400100190FFE701980290FFE702989A
:1021D0000390FFE703980490FFE704980590FFE75A
:1021E00005980421C4F202010860FFE70D99002060
:1021F00081F82000FFE70D98806A20B1FFE70D9875
:10220000816A8847FFE72FE00C980D99096CC84058
:102210000007002827D5FFE79DF82C0000070028BD
:1022200021D5FFE70D980168086820F00E000860CE
:102230000D98C26B016C012000FA01F151600D99FB
:1022400088630D9981F82100FFE70D99002081F83E
:102250002000FFE70D98006B20B1FFE70D98016BA0
:102260008847FFE7FFE7FFE7FFE70EB080BD00000C
:1022700083B0019000200090019820B9FFE7012071
:102280008DF80B0047E0019908684FF6F872CBF61D
:10229000FD7210444CF6CD42CCF6CC42A0FB0202BB
:1022A0006FF0030000EA9200086401990020C4F274
:1022B0000200C8630199022081F82100019800689A
:1022C00000680090009843F6F071884300900199EF
:1022D0004868D1F808C0CB680A6940EA0C00184386
:1022E00010434A6910438A691043C9690143009841
:1022F000084300900098019909680860019900203E
:102300008863019A012182F82110019981F8200047
:102310008DF80B00FFE79DF80B0003B0704700003D
:1023200080B586B0049003910292019300208DF84D
:102330000300FFE7049890F82000012804D1FFE78C
:1023400002208DF817004CE00499012081F820004C
:10235000FFE7FFE7049890F82100012832D1FFE75A
:102360000499022081F821000499002088630498D0
:102370000168086820F00100086004980399029A37
:10238000019BFEF70FFE0498C06A38B1FFE704987E
:102390000168086840F00E0008600CE004980168CD
:1023A000086820F00400086004980168086840F09C
:1023B0000A000860FFE704980168086840F001001F
:1023C000086009E0FFE70499002081F82000FFE79A
:1023D00002208DF80300FFE79DF803008DF8170039
:1023E000FFE79DF8170006B080BD000080B584B0FF
:1023F000039000F031FB02900398019001980130A6
:1024000048B1FFE740F23600C2F2000001780198BF
:1024100008440190FFE7FFE700F01EFB0299401A15
:102420000199884201D2FFE7F6E704B080BD0000C1
:1024300080B586B00490039101208DF80B00002038
:102440000190FFE740F28840C2F20000007E0128C0
:1024500004D1FFE702208DF817006AE040F28841BE
:10246000C2F2000101200876FFE7FFE70498006848
:10247000022819D1FFE74CF25030FEF7B1FF90B9B6
:10248000FFE70120FEF7DAFE4CF25030FEF7A8FF1E
:102490008DF80B0042F21001C4F20201086820F02E
:1024A00004000860FFE737E04CF25030FEF798FF79
:1024B00088BBFFE703994FF0FF30086004988068FD
:1024C0000190FFE70198049A9168D26801EB82219C
:1024D00088421FD2FFE70198FEF7C6FE4CF250304B
:1024E000FEF77EFF8DF80B0042F21001C4F20201EC
:1024F000086820F0020008609DF80B0020B1FFE79B
:1025000001980399086005E0FFE7019800F58060F5
:102510000190D7E7FFE7FFE7FFE740F28841C2F20B
:10252000000100200876FFE79DF80B008DF81700EA
:10253000FFE79DF8170006B080BD000042F21001D1
:10254000C4F20201086840F0800008600020704773
:1025500080B588B0069005910393029201208DF812
:10256000070000208DF806008DF80500FFE740F217
:102570008840C2F20000007E012804D1FFE702205B
:102580008DF81F0076E040F28841C2F20001012080
:102590000876FFE7FFE74CF25030FEF721FF8DF899
:1025A00007009DF80700002857D1FFE7069801288B
:1025B00004D1FFE701208DF805000CE00698022801
:1025C00004D1FFE702208DF8050003E004208DF818
:1025D0000500FFE7FFE700208DF80600FFE79DF804
:1025E00006009DF80510884236DAFFE705989DF849
:1025F00006C000EB4C000299039A4FEA0C1E202300
:10260000A3EB0C1302FA03F321FA0EF119436FF056
:102610001F0303EB0C13DA40002B58BF114689B29D
:10262000FEF73EFE4CF25030FEF7DAFE8DF8070062
:1026300042F21001C4F20201086820F001000860B3
:102640009DF8070008B1FFE706E0FFE79DF80600E8
:1026500001308DF80600C2E7FFE7FFE740F288414E
:10266000C2F2000100200876FFE79DF807008DF810
:102670001F00FFE79DF81F0008B080BD81B000205B
:102680008DF8030042F21000C4F202000068000658
:1026900000281CD5FFE742F20401C4F2020140F217
:1026A0002310C4F26750086048F6AB10CCF6EF5028
:1026B000086042F21000C4F2020000680006002820
:1026C00004D5FFE701208DF80300FFE7FFE79DF841
:1026D000030001B07047000090B00F900E910020F1
:1026E0000D900990FFE70E9800680D99C8400028EA
:1026F00000F07F81FFE70D99012088400C900E9833
:1027000000680C9908400B900B980C99884240F097
:102710006C81FFE70E9840680590002851D0FFE7D4
:10272000059801283AD0FFE7059802283FD0FFE737
:10273000059803285FD0FFE70598112832D0FFE7FE
:102740000598122838D0FFE705980021C1F2110141
:10275000884236D0FFE705980021C1F21201884275
:102760002FD0FFE705980021C1F22101884228D02F
:10277000FFE705980021C1F22201884221D0FFE73E
:1027800005980021C1F2310188421AD0FFE705986F
:102790000021C1F23201884213D02FE00E98C068A8
:1027A00009902CE00E98C0680430099027E00E983C
:1027B000C0680830099022E00E98C0680C3009907B
:1027C0001DE00E98806818B9FFE70420099011E019
:1027D0000E988068012806D1FFE7082009900C9820
:1027E0000F99086105E0082009900C980F9948613D
:1027F000FFE7FFE703E00020099000E0FFE70B9808
:10280000FF2803D8FFE70F98049003E00F980430E7
:102810000490FFE7049808900B98FF2804D8FFE77E
:102820000D988000039006E00D996FF01F0000EBFB
:1028300081000390FFE70398079008980068079AC3
:102840000F219140884309999140084308990860F5
:102850000E98C079C006002840F1C680FFE7FFE768
:1028600041F21800C4F20200016841F00101016068
:10287000006800F0010006900698FFE70D9820F030
:1028800003000821C4F2010140580A900D9800F09D
:10289000030081000F2000FA01F10A9888430A9092
:1028A0000F9840F60001C4F20101884203D1FFE70E
:1028B0000020029026E00F9840F60041C4F201018A
:1028C000884203D1FFE70120019018E00F9841F200
:1028D0000001C4F20101884203D1FFE70220009009
:1028E0000AE00F9941F20042C4F201020420914231
:1028F00008BF03200090FFE700980190FFE70198D0
:102900000290FFE702980D9901F00301890000FA97
:1029100001F10A9808430A900A980D9921F00301E1
:102920000822C4F2010288500E988079C00600285F
:1029300009D5FFE70B9A40F20841C4F2010108688B
:102940001043086008E00B9A40F20841C4F201010C
:10295000086890430860FFE70E9880798006002899
:1029600009D5FFE70B9A40F20C41C4F20101086857
:102970001043086008E00B9A40F20C41C4F20101D8
:10298000086890430860FFE70E9880798007002868
:1029900009D5FFE70B9A40F20441C4F2010108682F
:1029A0001043086008E00B9A40F20441C4F20101B0
:1029B000086890430860FFE70E988079C00748B127
:1029C000FFE70B9A40F20041C4F20101086810438E
:1029D000086008E00B9A40F20041C4F20101086867
:1029E00090430860FFE7FFE7FFE70D9801300D9087
:1029F00079E610B07047000082B00190ADF8021087
:102A000001988068BDF80210084204D0FFE7012059
:102A10008DF8010003E000208DF80100FFE79DF82C
:102A2000010002B07047000082B00190ADF80210C2
:102A30008DF801209DF8010028B1FFE7BDF80200E4
:102A40000199086105E0BDF80200000401990861E0
:102A5000FFE702B07047000040F28050C2F2000071
:102A60000068704740F23600C2F20000027840F27F
:102A70008051C2F2000108681044086070470000ED
:102A800080B542F20001C4F20201086840F0100073
:102A90000860032000F096F80F2000F005F800F021
:102AA0003BF8002080BD000080B582B0009040F26D
:102AB0001400C2F20000006840F23601C2F20001C8
:102AC0000A784FF47A71B1FBF2F1B0FBF1F001F04A
:102AD00075F820B1FFE701208DF8070018E0009895
:102AE0000F280DD8FFE700994FF0FF30002200F0CB
:102AF0004FF8009840F23801C2F20001086003E08C
:102B000001208DF8070003E000208DF80700FFE7A3
:102B10009DF8070002B080BD83B0FFE741F21800C6
:102B2000C4F20200016841F001010160006800F098
:102B3000010002900298FFE7FFE741F21C00C4F297
:102B40000200016841F080510160006800F080508F
:102B500001900198FFE7FFE70421C4F20101086832
:102B60000090009820F0E0600090009840F0007025
:102B7000009000980860FFE703B0704780B582B00E
:102B80008DF807009DF9070005F0DEFB02B080BD5F
:102B900080B586B08DF81700049103920020029052
:102BA00005F0EAFB02909DF9170001900298049944
:102BB000039A04F067F80146019805F0E5FB06B0BA
:102BC00080BD000080B582B00190019805F0FEFB49
:102BD00002B080BD80B586B00490002003900290C2
:102BE00004980078C007002800F0AC80FFE70020C0
:102BF0008DF8070041F21C00C4F202000068C0001A
:102C0000002813D4FFE7FFE741F21C00C4F20200E2
:102C1000016841F080510160006800F08050009030
:102C20000098FFE701208DF80700FFE747F200005A
:102C3000C4F200000068C005002822D4FFE747F274
:102C40000001C4F20001086840F480700860FFF7DA
:102C500003FF0390FFE747F20000C4F200000068A2
:102C6000C00500280CD4FFE7FFF7F6FE0399401AD1
:102C7000652804D3FFE703208DF817008AE0EAE710
:102C8000FFE741F22000C4F20200006800F4407047
:102C900002900298E0B3FFE702980499496801F4B2
:102CA0004071884234D0FFE741F22001C4F20201B2
:102CB000086820F44070029040F24042C4F2422280
:102CC0000120106000201060029808609DF8080044
:102CD000C007E0B1FFE7FFF7BFFE0390FFE741F257
:102CE0002000C4F202000068800700280ED4FFE72D
:102CF000FFF7B2FE0399401A41F28931884204D3AA
:102D0000FFE703208DF8170044E0E8E7FFE7FFE75F
:102D100041F22001C4F20201086820F44070049AD4
:102D20005268104308609DF80700012809D1FFE7A9
:102D300041F21C01C4F20201086820F080500860D2
:102D4000FFE7FFE704980078800700280CD5FFE72D
:102D500041F20401C4F20201086820F44040049AE0
:102D6000926810430860FFE704980078C0060028C6
:102D70000CD5FFE741F20401C4F20201086820F417
:102D80008000049AD26810430860FFE700208DF8A5
:102D90001700FFE79DF8170006B080BD80B584B02E
:102DA00002900191029820B9FFE701208DF80F00F1
:102DB0001BE1019842F20001C4F20201096801F02E
:102DC0000701884216D9FFE742F20000C4F2020070
:102DD000016821F00701019A11430160006800F0C9
:102DE00007000199884204D0FFE701208DF80F0009
:102DF000FBE0FFE702980078800700282AD5FFE76C
:102E0000029800784007002809D5FFE741F2040145
:102E1000C4F20201086840F4E0600860FFE702982D
:102E200000780007002809D5FFE741F20401C4F249
:102E30000201086840F460500860FFE741F20401B5
:102E4000C4F20201086820F0F000029A9268104370
:102E50000860FFE702980078C007002860D0FFE70D
:102E60000298406801280ED1FFE741F20000C4F249
:102E7000020000688003002804D4FFE701208DF8D9
:102E80000F00B2E021E00298406802280ED1FFE76F
:102E900041F20000C4F2020000688001002804D45E
:102EA000FFE701208DF80F009FE00DE041F20000E8
:102EB000C4F2020000688007002804D4FFE7012064
:102EC0008DF80F0091E0FFE7FFE741F20401C4F243
:102ED0000201086820F00300029A5268104308605B
:102EE000FFF7BAFD0090FFE741F20400C4F20200D0
:102EF000006800F00C0002994968B0EB810F0ED019
:102F0000FFE7FFF7A9FD0099401A41F28931884295
:102F100004D3FFE703208DF80F0066E0E4E7FFE746
:102F2000019842F20001C4F20201096801F00701B0
:102F3000884216D2FFE742F20000C4F202000168A4
:102F400021F00701019A11430160006800F00700B9
:102F50000199884204D0FFE701208DF80F0044E07A
:102F6000FFE702980078400700280CD5FFE741F200
:102F70000401C4F20201086820F4E060029AD268F9
:102F800010430860FFE702980078000700280DD57D
:102F9000FFE741F20401C4F20201086820F4605026
:102FA000029A126940EAC2000860FFE700F04CF89C
:102FB00041F20401C4F202010968C9B20A0949F6E2
:102FC0008841C0F60001895CC84040F21401C2F299
:102FD0000001086040F23800C2F200000068FFF70C
:102FE00063FD00208DF80F00FFE79DF80F0004B08F
:102FF00080BD000040F21400C2F20000006870477B
:1030000080B5FFF7F7FF41F20401C4F2020109683D
:10301000C1F3022249F69841C0F60001895CC8401C
:1030200080BD000080B5FFF7E5FF41F20401C4F266
:1030300002010968C1F3C22249F69841C0F60001B5
:10304000895CC84080BD000086B0002005900490D7
:1030500003900290019041F20400C4F20200006863
:103060000590059800F00C000146009100283FD023
:10307000FFE70098042804D0FFE70098082806D04E
:1030800037E041F20020C0F27A00019037E0059865
:10309000C0F383414AF2B840C0F60000405C0290A1
:1030A0009DF81600C007C0B1FFE741F20400C4F26A
:1030B00002000068C0F340414AF2C840C0F6000078
:1030C000405C0490029841F20021C0F27A0148432A
:1030D0000499B0FBF1F0039007E0029840F600116C
:1030E000C0F23D0148430390FFE70398019006E0DA
:1030F000FFE741F20020C0F27A000190FFE701985B
:1031000006B0704780B586B00490049820B9FFE7F8
:1031100001208DF817002EE304980078C0070028DE
:1031200000F0AE80FFE741F20400C4F20200006844
:1031300000F00C00042813D0FFE741F20400C4F2B1
:103140000200006800F00C0008281BD1FFE741F2E4
:103150000400C4F202000068C003002812D5FFE793
:1031600041F20000C4F2020000688003002808D584
:10317000FFE70498406820B9FFE701208DF81700A9
:10318000F9E27CE0FFE704984068B0F5803F09D1A0
:10319000FFE741F20001C4F20201086840F4803008
:1031A000086032E00498406868B9FFE741F2000126
:1031B000C4F20201086820F480300860086820F436
:1031C0008020086020E004984068B0F5A02F0DD161
:1031D000FFE741F20001C4F20201086840F48020D8
:1031E0000860086840F4803008600CE041F200019B
:1031F000C4F20201086820F480300860086820F4F6
:1032000080200860FFE7FFE7FFE7FFE704984068DA
:10321000D0B1FFE7FFF720FC0390FFE741F2000089
:10322000C4F202000068800300280CD4FFE7FFF717
:1032300013FC0399401A652804D3FFE703208DF897
:10324000170098E2EAE719E0FFF706FC0390FFE7B2
:1032500041F20000C4F202000068800300280CD58F
:10326000FFE7FFF7F9FB0399401A652804D3FFE74E
:1032700003208DF817007EE2EAE7FFE7FFE7FFE7AC
:10328000049800788007002840F18D80FFE741F224
:103290000400C4F20200006810F00C0F13D0FFE726
:1032A00041F20400C4F20200006800F00C0008289B
:1032B00029D1FFE741F20400C4F202000068C00314
:1032C000002820D4FFE741F20000C4F202000068A9
:1032D0008007002809D5FFE704980069012804D079
:1032E000FFE701208DF8170045E241F20001C4F22A
:1032F0000201086820F0F800049A526940EAC2000E
:103300000860FFE74EE00498006958B3FFE700212A
:10331000C4F2422101200860FFF79EFB0390FFE703
:1033200041F20000C4F202000068800700280CD4BB
:10333000FFE7FFF791FB0399401A032804D3FFE747
:1033400003208DF8170016E2EAE741F20001C4F20B
:103350000201086820F0F800049A526940EAC200AD
:1033600008601EE00021C4F2422100200860FFF73F
:1033700073FB0390FFE741F20000C4F20200006813
:10338000800700280CD5FFE7FFF766FB0399401A7A
:10339000032804D3FFE703208DF81700EBE1EAE7E9
:1033A000FFE7FFE7FFE7049800780007002848D50B
:1033B000FFE70498806918B3FFE740F28041C4F248
:1033C000422101200860FFF747FB0390FFE741F22D
:1033D0002400C4F202000068800700280CD4FFE734
:1033E000FFF73AFB0399401A032804D3FFE70320B1
:1033F0008DF81700BFE1EAE7012003F06DFF1FE041
:1034000040F28041C4F2422100200860FFF724FB13
:103410000390FFE741F22400C4F202000068800735
:1034200000280CD5FFE7FFF717FB0399401A032884
:1034300004D3FFE703208DF817009CE1EAE7FFE7DC
:10344000FFE7049800784007002840F1D880FFE7A4
:1034500000208DF8070041F21C00C4F20200006851
:10346000C000002813D4FFE7FFE741F21C00C4F2BC
:103470000200016841F080510160006800F0805056
:1034800000900098FFE701208DF80700FFE747F262
:103490000000C4F200000068C005002822D4FFE745
:1034A00047F20001C4F20001086840F4807008602F
:1034B000FFF7D2FA0390FFE747F20000C4F20000E2
:1034C0000068C00500280CD4FFE7FFF7C5FA039990
:1034D000401A652804D3FFE703208DF817004AE15E
:1034E000EAE7FFE7FFE70498C068012809D1FFE792
:1034F00041F22001C4F20201086840F001000860B6
:1035000031E00498C06868B9FFE741F22001C4F2D5
:103510000201086820F001000860086820F004003B
:1035200008601FE00498C06805280DD1FFE741F24C
:103530002001C4F20201086840F004000860086835
:1035400040F0010008600CE041F22001C4F20201E9
:10355000086820F001000860086820F00400086096
:10356000FFE7FFE7FFE7FFE70498C068E0B1FFE788
:10357000FFF772FA0390FFE741F22000C4F2020065
:103580000068800700280ED4FFE7FFF765FA03996B
:10359000401A41F28931884204D3FFE703208DF8B5
:1035A0001700E8E0E8E71BE0FFF756FA0390FFE7B3
:1035B00041F22000C4F202000068800700280ED506
:1035C000FFE7FFF749FA0399401A41F2893188422F
:1035D00004D3FFE703208DF81700CCE0E8E7FFE70E
:1035E0009DF80700012809D1FFE741F21C01C4F250
:1035F0000201086820F080500860FFE7FFE70498A8
:10360000C069002800F0B380FFE741F20400C4F273
:103610000200006800F00C00082800F08280FFE73C
:103620000498C06902285CD1FFE76021C4F24221FE
:1036300000200860FFF710FA0390FFE741F2000056
:10364000C4F202000068800100280CD5FFE7FFF7F4
:1036500003FA0399401A032804D3FFE703208DF8E7
:10366000170088E0EAE70498006AB0F5803F0CD1C3
:10367000FFE741F20401C4F20201086820F40030BF
:10368000049A926810430860FFE741F20401C4F213
:103690000201086820F47410049B1A6A5B6A1A43DA
:1036A000104308606021C4F2422101200860FFF746
:1036B000D3F90390FFE741F20000C4F20200006872
:1036C000800100280CD4FFE7FFF7C6F90399401AE0
:1036D000032804D3FFE703208DF817004BE0EAE747
:1036E0001EE06021C4F2422100200860FFF7B4F917
:1036F0000390FFE741F20000C4F20200006880017D
:1037000000280CD5FFE7FFF7A7F90399401A032813
:1037100004D3FFE703208DF817002CE0EAE7FFE76A
:1037200024E00498C069012804D1FFE701208DF846
:10373000170020E041F20400C4F202000068029089
:10374000029800F480300499096A884208D1FFE7A2
:10375000029800F470100499496A884204D0FFE787
:1037600001208DF8170006E0FFE7FFE7FFE70020E4
:103770008DF81700FFE79DF8170006B080BD000028
:1037800081B0009001B0704780B586B00590059873
:1037900000684068049005980068806803909DF870
:1037A0000C0000F040010020B0EB911F11D1FFE7A9
:1037B0000398C00768B1FFE79DF8100000F04001D2
:1037C0000020B0EB911F04D0FFE70598016C8847FB
:1037D000D6E09DF80C0000F002010020B0EB510F84
:1037E0000BD0FFE79DF810100020B0EBD11F04D0E4
:1037F000FFE70598416C8847C2E09DF80C0000F097
:1038000020010020B0EB511F0AD1FFE79DF80C000A
:1038100000F040010020B0EB911F00F0B180FFE705
:103820009DF8100000F020010020B0EB511F00F0C7
:10383000A780FFE79DF80C0000F040010020B0EBEE
:10384000911F28D0FFE7059890F85100032813D066
:10385000FFE70599486D40F004004865FFE7002048
:10386000029005980068C06802900598006880681A
:1038700002900298FFE70DE0FFE700200190059815
:103880000068C06801900598006880680190019800
:10389000FFE775E0FFE79DF80C0000F02001002035
:1038A000B0EB511F15D0FFE70599486D40F00100BE
:1038B0004865FFE700200090059800688068009048
:1038C00005980168086820F0400008600098FFE74C
:1038D000FFE70598406D002851D0FFE70598016883
:1038E000486820F0E00048600599012081F8510007
:1038F0009DF810008007002805D4FFE79DF8100010
:10390000C007B8B3FFE705980168486820F00300D6
:1039100048600598C06CA0B1FFE70598C16C47F2FC
:103920008D30C0F6000048630598C06CFEF7CEFAF3
:1039300030B1FFE70599486D40F040004865FFE76A
:10394000FFE70598806CA0B1FFE70598816C47F20E
:103950008D30C0F6000048630598806CFEF7B6FA1B
:1039600030B1FFE70599486D40F040004865FFE73A
:10397000FFE703E00598FFF703FFFFE7FFE7FFE737
:1039800006B080BD80B584B00290029820B9FFE7F0
:1039900001208DF80F006EE00298406A60B9FFE7E1
:1039A00002984068B0F5827F01D1FFE703E00299F9
:1039B0000020C861FFE705E0029900200861029934
:1039C0004861FFE7029900208862029890F8510050
:1039D00040B9FFE70299002081F85000029800F0FA
:1039E0004FF8FFE70299022081F851000298016820
:1039F000086820F040000860029A0192116850683F
:103A0000D2F808C0D36800F482700CF4044C60440F
:103A100003F400631844136903F002031844536964
:103A200003F001031844936903F400731844D36945
:103A300003F038031844136A03F080031843926AB2
:103A400002F4005210430860029801688269042061
:103A500000EA1240486002980168C86920F40060DA
:103A6000C861029900204865029A012182F851102C
:103A70008DF80F00FFE79DF80F0004B080BD000037
:103A800080B58EB00D9000200C900B900A9009909C
:103A90000D98006843F60001C4F20001884240F02E
:103AA0008B80FFE7FFE741F21C00C4F202000168CF
:103AB00041F480410160006800F48040089008985B
:103AC000FFE7FFE741F21800C4F20200016841F08D
:103AD00008010160006800F0080007900798FFE700
:103AE0004FF42040099002200A9003200C9040F6E9
:103AF0000040C4F20100039009A90491FEF7ECFD17
:103B0000039804994FF480420992002205920A9288
:103B10000B92FEF7E1FD059940F20410C2F200009D
:103B200006904422C4F20202026041608160802259
:103B3000C260016141618161C161FEF799FB18B109
:103B4000FFE7FDF773FBFFE7FFE70D9840F2041175
:103B5000C2F20001C1640D984862FFE740F24810CC
:103B6000C2F2000002905821C4F20201016010214B
:103B70004160002181608022C260016141618161F8
:103B8000C161FEF775FB18B1FFE7FDF74FFBFFE7DB
:103B9000FFE70D9840F24811C2F2000181640D98D0
:103BA0004862FFE72420019000221146FEF7F0FF53
:103BB0000198FEF7E3FFFFE70EB080BD80B582B04D
:103BC0000190019803F006FC02B080BD81B0009026
:103BD00001B0704781B0009001B0704784B002908E
:103BE000019100200090FFE7029890F83C00012826
:103BF00004D1FFE702208DF80F0044E00299012074
:103C000081F83C00FFE7FFE7009820F0FF000199F2
:103C1000C96808430090009820F4407001998968B1
:103C200008430090009820F4806001994968084397
:103C30000090009820F40060019909680843009002
:103C4000009820F480500199096908430090009879
:103C500020F400500199496908430090009820F42D
:103C600080400199C9690843009000980299096849
:103C70004864FFE70299002081F83C00FFE700203C
:103C80008DF80F00FFE79DF80F0004B070470000AB
:103C900085B003900291FFE7039890F83C0001285B
:103CA00004D1FFE702208DF813005BE003990120A7
:103CB00081F83C00FFE7FFE70399022081F83D000F
:103CC000039800684068019003980068806800903D
:103CD000019820F070000190029801680198084353
:103CE000019001980399096848600398006842F6BA
:103CF0000041C4F20101884218D0FFE70398006830
:103D0000B0F1804F12D0FFE70398006840F2004105
:103D1000C4F20001884209D0FFE70398006840F62A
:103D20000001C4F2000188420ED1FFE7009820F0A4
:103D30008000009002984168009808430090009825
:103D4000039909688860FFE70399012081F83D0025
:103D5000FFE70399002081F83C00FFE700208DF881
:103D60001300FFE79DF8130005B0704780B582B0DF
:103D70000090009820B9FFE701208DF807003FE090
:103D8000009890F83D0040B9FFE70099002081F8C5
:103D90003C00009800F038F8FFE70099022081F815
:103DA0003D00009951F8040B03F09CFB00990120A1
:103DB00081F84600FFE70099012081F83E00009954
:103DC00081F83F00009981F84000009981F8410096
:103DD000FFE7FFE70099012081F84200009981F890
:103DE0004300009981F84400009981F84500FFE7FD
:103DF0000099012081F83D0000208DF80700FFE7C1
:103E00009DF8070002B080BD80B586B0059005988A
:103E1000006842F60041C4F20101884210D1FFE778
:103E2000FFE741F21800C4F20200016841F40061AA
:103E30000160006800F4006004900498FFE73CE033
:103E40000598006840F20041C4F20001884210D198
:103E5000FFE7FFE741F21C00C4F20200016841F0F5
:103E600002010160006800F0020003900398FFE780
:103E700022E00598006840F60001C4F20001884283
:103E800019D1FFE7FFE741F21C00C4F2020001680C
:103E900041F004010160006800F004000290029803
:103EA000FFE71E20019000221146FEF771FE0198E7
:103EB000FEF764FEFFE7FFE7FFE706B080BD000006
:103EC00083B00190019890F83D00012804D0FFE7ED
:103ED00001208DF80B0047E00199022081F83D0098
:103EE00001980168C86840F00100C8600198006846
:103EF00042F60041C4F20101884218D0FFE7019860
:103F00000068B0F1804F12D0FFE70198006840F2DE
:103F10000041C4F20001884209D0FFE7019800681F
:103F200040F60001C4F20001884212D1FFE7019877
:103F30000068806800F0070000900098062807D00D
:103F4000FFE701980168086840F001000860FFE79A
:103F500006E001980168086840F001000860FFE78A
:103F600000208DF80B00FFE79DF80B0003B07047B1
:103F700080B586B00490039100208DF80B00FFE718
:103F8000049890F83C00012804D1FFE702208DF846
:103F90001700ABE00499012081F83C00FFE7FFE740
:103FA0000499022081F83D0004980068806801901F
:103FB000019820F077000190019820F47F40019053
:103FC00001980499096888600398006800900028A7
:103FD00072D0FFE7009810286ED0FFE700982028E5
:103FE0006AD0FFE70098302866D0FFE700984028A5
:103FF00055D0FFE70098502837D0FFE70098602899
:1040000040D0FFE7009870280BD0FFE70098B0F58C
:10401000805F05D0FFE70098B0F5005F16D052E052
:1040200055E004980068039B5A689968DB6803F0C0
:10403000F9FA0498006880680190019840F07700D0
:104040000190019804990968886040E0049800682C
:10405000039B5A689968DB6803F0E4FA04980168E6
:10406000886840F48040886031E004980068039AD2
:104070005168D26803F092FC04980068502103F064
:10408000EBFA24E004980068039A5168D26803F0C0
:10409000ADFC04980068602103F0DEFA17E0049894
:1040A0000068039A5168D26803F078FC04980068AD
:1040B000402103F0D1FA0AE00498006803990968E6
:1040C00003F0CAFA03E001208DF80B00FFE7049922
:1040D000012081F83D00FFE70499002081F83C00B1
:1040E000FFE79DF80B008DF81700FFE79DF817001C
:1040F00006B080BD81B0009001B0704780B584B03B
:10410000039003980068C0680290039800680069F3
:1041100001909DF804008007002824D5FFE79DF852
:104120000800800700281DD5FFE7039801686FF09D
:1041300002000861039901200877039800688069EC
:10414000800720B1FFE70398FFF7D4FF06E003984C
:1041500000F0CAF9039800F031FBFFE70399002053
:104160000877FFE7FFE79DF804004007002825D502
:10417000FFE79DF80800400700281ED5FFE70398D9
:1041800001686FF004000861039902200877039822
:104190000068806910F4407F04D0FFE70398FFF7C0
:1041A000A9FF06E0039800F09FF9039800F006FBD2
:1041B000FFE7039900200877FFE7FFE79DF8040079
:1041C0000007002824D5FFE79DF808000007002815
:1041D0001DD5FFE7039801686FF008000861039997
:1041E0000420087703980068C069800720B1FFE7C2
:1041F0000398FFF77FFF06E0039800F075F9039836
:1042000000F0DCFAFFE7039900200877FFE7FFE7FB
:104210009DF80400C006002825D5FFE79DF808009A
:10422000C00600281ED5FFE7039801686FF0100054
:10423000086103990820087703980068C06910F4A2
:10424000407F04D0FFE70398FFF754FF06E0039890
:1042500000F04AF9039800F0B1FAFFE70399002053
:104260000877FFE7FFE79DF80400C00778B1FFE794
:104270009DF80800C00748B1FFE7039801686FF098
:1042800001000861039800F04DFBFFE7FFE79DF890
:1042900004000006002810D5FFE79DF8080000067E
:1042A000002809D5FFE7039801686FF080000861D6
:1042B0000398FFF78BFCFFE7FFE79DF8040040063B
:1042C000002810D5FFE79DF808004006002809D512
:1042D000FFE7039801686FF040000861039800F061
:1042E00095FBFFE7FFE79DF804008006002810D546
:1042F000FFE79DF808008006002809D5FFE703982E
:1043000001686FF0200008610398FFF763FCFFE786
:10431000FFE704B080BD000080B58CB00B9000209A
:104320000A900990089007900B98006842F60041A7
:10433000C4F2010188421DD1FFE7FFE741F21800F6
:10434000C4F20200016841F004010160006800F05D
:10435000040006900698FFE74FF480700790022053
:1043600008900A9040F60000C4F2010007A9FEF789
:10437000B3F965E00B980068B0F1804F1CD1FFE7FE
:10438000FFE741F21800C4F20200016841F00401A5
:104390000160006800F0040005900598FFE7082020
:1043A0000790022008900A9040F60000C4F2010035
:1043B00007A9FEF791F942E00B98006840F200412E
:1043C000C4F20001884239D1FFE7FFE741F218004B
:1043D000C4F20200016841F004010160006800F0CD
:1043E000040004900498FFE7FFE741F21800C4F2CC
:1043F0000200016841F008010160006800F0080057
:1044000003900398FFE7C0200790022001900890D6
:104410000A9040F60000C4F2010007A90291FEF7DD
:104420005BF9019802990122079208900A9040F6E0
:104430000040C4F20100FEF74FF9FFE7FFE7FFE796
:104440000CB080BD80B586B004900391029200202C
:104450008DF80700FFE7049890F83C00012804D18C
:10446000FFE702208DF817003AE00499012081F857
:104470003C00FFE7FFE7029800900C2821D8009944
:10448000DFE801F0071F1F1F0D1F1F1F131F1F1F36
:10449000190004980068039903F0F4F815E00498F3
:1044A0000068039903F056F90FE004980068039937
:1044B00003F0BCF909E004980068039903F022FABC
:1044C00003E001208DF80700FFE7FFE704990020D3
:1044D00081F83C00FFE79DF807008DF81700FFE723
:1044E0009DF8170006B080BD81B0009001B0704704
:1044F00080B582B00090009820B9FFE701208DF8C8
:1045000007003FE0009890F83D0040B9FFE70099B0
:10451000002081F83C00009800F038F8FFE700998F
:10452000022081F83D00009951F8040B02F0DAFFF7
:104530000099012081F84600FFE70099012081F8E9
:104540003E00009981F83F00009981F840000099F1
:1045500081F84100FFE7FFE70099012081F8420060
:10456000009981F84300009981F84400009981F88E
:104570004500FFE70099012081F83D0000208DF8FB
:104580000700FFE79DF8070002B080BD81B00090F2
:1045900001B0704780B586B004900391029200206C
:1045A0008DF80700FFE7049890F83C00012804D13B
:1045B000FFE702208DF8170089E00499012081F8B7
:1045C0003C00FFE7FFE7029800900C2800F27080A3
:1045D0000099DFE801F0076D6D6D206D6D6D3A6D2E
:1045E0006D6D530004980068039903F04BF804982C
:1045F0000168886940F0080088610498016888694A
:1046000020F00400886103980269049801688869B1
:104610001043886150E004980068039903F09AF809
:1046200004980168886940F4006088610498016812
:10463000886920F4806088610398026904980168A1
:10464000886940EA0220886136E00498006803998E
:1046500003F0ECF804980168C86940F00800C861EC
:1046600004980168C86920F00400C86103980269D1
:1046700004980168C8691043C8611DE00498006887
:10468000039903F03FF904980168C86940F4006099
:10469000C86104980168C86920F48060C861039803
:1046A000026904980168C86940EA0220C86103E011
:1046B00001208DF80700FFE7FFE70499002081F84B
:1046C0003C00FFE79DF807008DF81700FFE79DF815
:1046D000170006B080BD000080B582B00090009841
:1046E00020B9FFE701208DF807003FE0009890F81F
:1046F0003D0040B9FFE70099002081F83C00009898
:1047000000F038F8FFE70099022081F83D00009999
:1047100051F8040B02F0E6FE0099012081F84600F2
:10472000FFE70099012081F83E00009981F83F00E1
:10473000009981F84000009981F84100FFE7FFE708
:104740000099012081F84200009981F84300009906
:1047500081F84400009981F84500FFE700990120A5
:1047600081F83D0000208DF80700FFE79DF8070065
:1047700002B080BD80B584B0039003980068B0F1AA
:10478000804F19D1FFE7FFE741F21C00C4F202009D
:10479000016841F001010160006800F00100029031
:1047A0000298FFE71C20019000221146FEF7F0F965
:1047B0000198FEF7E3F9FFE704B080BD81B00090F7
:1047C00001B0704780B58AB008900791079828B962
:1047D000FFE7089890F83E0005901CE00798042831
:1047E00005D1FFE7089890F83F00049010E0079883
:1047F000082805D1FFE7089890F84000039004E0EE
:10480000089890F841000390FFE703980490FFE7B1
:1048100004980590FFE70598012804D0FFE70120E0
:104820008DF827007AE0079828B9FFE70899022059
:1048300081F83E001EE00798042806D1FFE708999A
:10484000022081F83F00029012E00798082806D164
:10485000FFE70899022081F84000019005E00899DF
:10486000022081F841000190FFE701980290FFE7E4
:104870000298FFE7089800680799012202F0B6FE47
:104880000898006842F60041C4F20101884207D14D
:10489000FFE708980168486C40F400404864FFE76F
:1048A0000898006842F60041C4F20101884218D01D
:1048B000FFE708980068B0F1804F12D0FFE7089832
:1048C000006840F20041C4F20001884209D0FFE7CD
:1048D0000898006840F60001C4F20001884212D135
:1048E000FFE708980068806800F0070006900698C7
:1048F000062807D0FFE708980168086840F0010023
:104900000860FFE706E008980168086840F00100C9
:104910000860FFE700208DF82700FFE79DF82700DB
:104920000AB080BD80B584B003900398006840F65B
:104930000001C4F20001884266D1FFE70398007FBE
:10494000002860D1FFE701F051F840F60040C4F2C2
:1049500001001021FEF750F880F0010040F2410103
:10496000C2F20001087040F26040C2F2000000781C
:10497000142811D1FFE740F28440C2F20000006821
:10498000007D48B9FFE740F26041C2F2000100201B
:10499000087001F05DF907E040F26041C2F20001E9
:1049A000087801300870FFE740F26000C2F20000B2
:1049B000007838B3FFE740F26001C2F20001002046
:1049C0000290087040F25C01C2F20001087040F2EF
:1049D0008441C2F200010968087540F21001C2F278
:1049E00000010120087002F083F902994AF64A207A
:1049F000C0F600006A46106080220823084602F0D4
:104A0000ABF9FFE7FFE7FFE704B080BD81B000909E
:104A100001B0704780B586B004900391ADF80A20CC
:104A2000049890F84200202848D1FFE7039820B16D
:104A3000FFE7BDF80A0020B9FFE701208DF8170055
:104A400040E0049901200863049900204863049819
:104A50000399BDF80A2003F08FFA8DF80900049835
:104A6000006B012821D1FFE7FFE7002001900498A7
:104A700000680068019004980068406801900198FF
:104A8000FFE7FFE7FFE70498006850E8030F40F0F6
:104A900010000090FFE700990498026842E80310B4
:104AA0000028F0D1FFE7FFE703E001208DF80900BF
:104AB000FFE79DF809008DF8170003E002208DF84C
:104AC0001700FFE79DF8170006B080BD80B582B0E3
:104AD0000190ADF80210019840F21041C2F20001BD
:104AE000884212D1FFE740F21040C2F2000040F2CB
:104AF000D011C2F200018022FFF78CFF40F2620168
:104B0000C2F200010120087017E0019840F2C8319C
:104B1000C2F2000188420FD1FFE7019840F2AC4198
:104B2000C2F200018022FFF775FF40F26101C2F27C
:104B3000000101200870FFE7FFE702B080BD000020
:104B400081B0009001B0704780B592B0119011987B
:104B500000680068109011980068C0680F90119864
:104B6000006840690E9000200D900C90109800F0A5
:104B70000F000D900D9888B9FFE79DF84000800662
:104B800000280AD5FFE79DF83C008006002804D5E0
:104B9000FFE7119803F0DCF8E9E1FFE70D98002842
:104BA00000F0C280FFE79DF83800C00738B9FFE782
:104BB000BDF83C0010F4907F00F0B680FFE79DF850
:104BC0004000C00758B1FFE79DF83D00C00730B175
:104BD000FFE71199486C40F001004864FFE79DF839
:104BE0004000400700280BD5FFE79DF83800C007BC
:104BF00030B1FFE71199486C40F002004864FFE7CC
:104C00009DF84000800700280BD5FFE79DF838008D
:104C1000C00730B1FFE71199486C40F004004864C8
:104C2000FFE79DF840000007002811D5FFE79DF839
:104C30003C008006002805D4FFE79DF83800C00737
:104C400030B1FFE71199486C40F008004864FFE775
:104C50001198406C002866D0FFE79DF84000800660
:104C600000280AD5FFE79DF83C008006002804D5FF
:104C7000FFE7119803F06CF8FFE7119800684069AE
:104C8000C0F380100C901198406C0007002804D4E9
:104C9000FFE70C9800283ED0FFE7119802F0DEFFF6
:104CA000119800684069400600282FD5FFE7FFE70C
:104CB000FFE71198006850E8050F20F040000B90C6
:104CC000FFE70B991198026842E805100028F0D11F
:104CD000FFE7FFE71198C06B98B1FFE71198C16B30
:104CE00047F69920C0F6000048631198C06BFDF7A5
:104CF000EDF828B1FFE71198C06B416B8847FFE7DB
:104D000003E01198FFF71CFFFFE703E01198FFF79E
:104D100017FFFFE706E01198FFF712FF1199002037
:104D20004864FFE7FFE722E11198006B012840F09B
:104D3000FE80FFE79DF84000C006002840F1F780A4
:104D4000FFE79DF83C00C006002840F1F080FFE737
:104D5000FFE700200A901198006800680A901198F7
:104D6000006840680A900A98FFE711980068406957
:104D70004006002840F18180FFE71198C06B006871
:104D80004068ADF82600BDF82600002874D0FFE783
:104D9000BDF826001199898D88426DDAFFE7BDF8CC
:104DA00026001199C8851198C06B8069202858D0B9
:104DB000FFE7FFE7FFE71198006850E8030F20F4D2
:104DC00080700890FFE708991198026842E8031084
:104DD0000028F0D1FFE7FFE7FFE7FFE71198006841
:104DE00050E8050F20F001000790FFE707991198A0
:104DF000026842E805100028F0D1FFE7FFE7FFE76F
:104E0000FFE71198006850E8050F20F04000069079
:104E1000FFE706991198026842E805100028F0D1D2
:104E2000FFE7FFE71199202081F842001199002047
:104E30000863FFE7FFE71198006850E8030F20F0D0
:104E400010000590FFE705991198026842E80310E9
:104E50000028F0D1FFE7FFE71198C06BFCF7F8FFDF
:104E6000FFE71199022048631198818DC28D891A3C
:104E700089B2FFF72BFEFFE779E01199888DC98D84
:104E8000401AADF812001198C08D00284ED0FFE7EF
:104E9000BDF81200002849D0FFE7FFE7FFE71198AF
:104EA000006850E8030F20F490700390FFE7039927
:104EB0001198026842E803100028F0D1FFE7FFE7ED
:104EC000FFE7FFE71198006850E8050F20F00100A8
:104ED0000290FFE702991198026842E80510002845
:104EE000F0D1FFE7FFE71199202081F842001199E6
:104EF00000200863FFE7FFE71198006850E8030F00
:104F000020F010000190FFE701991198026842E833
:104F100003100028F0D1FFE7FFE711990220486352
:104F20001198BDF81210FFF7D1FDFFE71FE09DF8C3
:104F30004000000600280AD5FFE79DF83C00000667
:104F4000002804D5FFE7119803F09CF80FE09DF8C6
:104F50004000400600280AD5FFE79DF83C004006C7
:104F6000002804D5FFE7119802F0C2FEFFE712B057
:104F700080BD000080B582B00090009820B9FFE7A6
:104F800001208DF8070040E00098806908B1FFE734
:104F900000E0FFE7009890F8410040B9FFE7009972
:104FA000002081F84000009800F034F8FFE70099F5
:104FB000242081F8410000980168C86820F400505E
:104FC000C860009802F07AFF00980168086920F430
:104FD0009040086100980168486920F02A00486103
:104FE00000980168C86840F40050C860009900202B
:104FF0004864009A202182F84110009A82F84210F9
:10500000009948638DF80700FFE79DF8070002B09C
:1050100080BD000080B590B00F9000200E900D90E4
:105020000C900B900F98006843F60001C4F2010148
:10503000884239D1FFE7FFE741F21800C4F20200CD
:10504000016841F480410160006800F480400A90EA
:105050000A98FFE7FFE741F21800C4F20200016876
:1050600041F004010160006800F004000990099813
:10507000FFE74FF400700B9002200C9003200E907D
:1050800040F60000C4F2010005900BA90691FDF75F
:1050900023FB059806994FF480620B9200220C9234
:1050A0000D92FDF719FB6FE00F98006844F60001C0
:1050B000C4F20001884266D1FFE7FFE741F21C001D
:1050C000C4F20200016841F480210160006800F42C
:1050D000802008900898FFE7FFE741F21800C4F22B
:1050E0000200016841F008010160006800F008005A
:1050F00007900798FFE74FF480600B9002200C9018
:1051000003200E9040F60040C4F2010001900BA96C
:105110000291FDF7E1FA019802994FF400620B92B7
:10512000002203920C920D92FDF7D6FA039940F2F9
:105130008C10C2F2000004903022C4F2020202601D
:10514000416081608022C260016141618161C16111
:10515000FDF78EF818B1FFE7FCF768F8FFE7FFE707
:105160000F9840F28C11C2F20001C1630F9848629F
:10517000FFE72720009000221146FDF709FD009867
:10518000FDF7FCFCFFE7FFE710B080BD80B58AB0FB
:1051900008900791ADF81A20059300200290089816
:1051A00090F84200202840F08880FFE7079820B15F
:1051B000FFE7BDF81A0020B9FFE701208DF82700AE
:1051C0007FE0089900204864089A222182F8421062
:1051D00008990863FDF740FC0290BDF81A00089991
:1051E0008885BDF81A000899C88508988068B0F5C8
:1051F000805F09D1FFE70898006928B9FFE7002020
:1052000004900798039004E007980490002003900E
:10521000FFE7FFE70898C08D002846D0FFE7089811
:10522000029B05996A4611602021002202F074FF5A
:1052300040B1FFE70899202081F8420003208DF853
:1052400027003EE0049858B9FFE7089800684068D6
:105250006FF35F20039908800398023003901FE0EA
:1052600008988068B0F5805F08D0FFE708988068EC
:1052700050B9FFE70898006930B9FFE7089800685F
:1052800040680499087007E008980068406800F0DA
:105290007F0004990870FFE7049801300490FFE74D
:1052A0000899C88D0138C885B4E70899202081F88D
:1052B000420000208DF8270003E002208DF827002F
:1052C000FFE79DF827000AB080BD000081B0009084
:1052D00001B0704781B0009001B0704780B58AB0CE
:1052E00008900791ADF81A200593002002900898C5
:1052F00090F84100202840F08180FFE7079820B116
:10530000FFE7BDF81A0020B9FFE701208DF827005C
:1053100078E00899002048640899212081F841002C
:10532000FDF79AFB0290BDF81A0008998884BDF831
:105330001A000899C88408988068B0F5805F09D180
:10534000FFE70898006928B9FFE700200490079854
:10535000039004E00798049000200390FFE7FFE724
:105360000898C08C78B3FFE70898029B05996A46B5
:1053700011608021002202F0CFFE40B1FFE70899C2
:10538000202081F8410003208DF827003AE004989E
:1053900058B9FFE7039800886FF35F200899096800
:1053A000486003980230039008E004980078089958
:1053B00009684860049801300490FFE70899C88C98
:1053C0000138C884CCE70898029B05996A461160A9
:1053D0004021002202F0A0FE40B1FFE70899202002
:1053E00081F8410003208DF827000BE00899202068
:1053F00081F8410000208DF8270003E002208DF89D
:105400002700FFE79DF827000AB080BD81B000901B
:1054100001B07047FFE7FEE782B0019000200090E6
:10542000FFE700980199B0EBC10F06D2FFE700BF7C
:10543000FFE7009801300090F3E702B070470000EA
:1054400080B584B0002002908DF80E0040F6004038
:10545000C4F201004FF400710122FDF7E5FA029851
:105460008DF80F00FFE79DF80F00072833DCFFE7FA
:105470009DF80E0040008DF80E0040F60040C4F28A
:10548000010001904FF480710122FDF7CDFA022056
:10549000FFF7C2FF01984FF40071FDF7ADFA38B184
:1054A000FFE79DF80E0040F001008DF80E00FFE7C9
:1054B00040F60040C4F201004FF480710022FDF775
:1054C000B3FA0220FFF7A8FFFFE79DF80F000130B5
:1054D0008DF80F00C7E79DF80E0004B080BD0000F6
:1054E00080B584B08DF80E008DF80D100292ADF8E5
:1054F000063000F0BFF99DF80E004000C0B200F089
:1055000041F900F003FA30B1FFE700F0DDF90120C6
:105510008DF80F004CE09DF80D0000F033F900F01D
:10552000F5F930B1FFE700F0CFF902208DF80F0058
:105530003EE000F09FF99DF80E0040000130C0B23F
:1055400000F020F900F0E2F930B1FFE700F0BCF91B
:1055500003208DF80F002BE00020ADF80400FFE7DA
:10556000BDF80400BDF8061088421BDAFFE7FFF71C
:1055700067FF0299BDF804208854BDF80400BDF807
:1055800006100139884203D1FFE700F04BF902E031
:1055900000F0D0F8FFE7FFE7BDF804000130ADF8F8
:1055A0000400DDE700F090F900208DF80F00FFE720
:1055B0009DF80F0004B080BD80B582B08DF8060064
:1055C0008DF80510009200F055F99DF80600400096
:1055D000C0B200F0D7F800F099F930B1FFE700F061
:1055E00073F901208DF807002CE09DF8050000F00C
:1055F000C9F800F08BF930B1FFE700F065F902203F
:105600008DF807001EE000F035F99DF80600400017
:105610000130C0B200F0B6F800F078F930B1FFE721
:1056200000F052F903208DF807000BE0FFF708FFA8
:105630000099087000F0F6F800F046F900208DF8A7
:105640000700FFE79DF8070002B080BD80B58EB06F
:1056500000200D900C900B900A90FFE741F218008B
:10566000C4F20200016841F008010160006800F026
:10567000080009900998FFE740F60040C4F20100D5
:1056800006904FF48071009100220292FDF7CCF950
:10569000029A06984FF400710191FDF7C5F900993F
:1056A00006980A91112103910B91012104910C910B
:1056B000022105910D910AA90791FDF70DF8DDF87A
:1056C0000CC0049B059A06980799DDF804E0CDF814
:1056D00028E0CDF82CC00C930D92FCF7FDFF029A48
:1056E00005990698FDF7A0F9029A069804210891F9
:1056F000FDF79AF9DDF80CC0049B059A0698079906
:105700000A92CDF82CC00C930D92FCF7E5FFDDF862
:105710000CC0049B059A06980799DDF820E0CDF8A7
:1057200028E0CDF82CC00C930D92FCF7D5FF0EB0FD
:1057300080BD000080B586B040F60040C4F2010094
:1057400003904FF40071049100220292FDF76CF96E
:105750000220FFF761FE03984FF48071019101224E
:105760000592FDF761F90520FFF756FE0199029AAF
:105770000398FDF759F903980499059AFDF754F930
:1057800006B080BD80B584B08DF80F0000208DF884
:105790000E00FFE79DF80E00072840DCFFE79DF8AC
:1057A0000F00000600280AD5FFE740F60040C4F2CB
:1057B00001004FF400710122FDF736F909E040F6CF
:1057C0000040C4F201004FF400710022FDF72CF9F3
:1057D000FFE79DF80F0040008DF80F0002200290B7
:1057E000FFF71AFE40F60040C4F2010000904FF4AB
:1057F000807101910122FDF717F90520FFF70CFEDA
:10580000009801990022FDF70FF90298FFF704FEB6
:10581000FFE79DF80E0001308DF80E00BAE704B0E6
:1058200080BD000080B586B040F60040C4F20100A3
:1058300003904FF40071049101220192FDF7F4F8F6
:105840000220FFF7E9FD019A03984FF4807102915D
:10585000FDF7EAF80520FFF7DFFD02990398002223
:105860000592FDF7E1F803980499059AFDF7DCF835
:1058700006B080BD80B586B040F60040C4F201009D
:1058800003904FF40071019101220092FDF7CCF8D2
:10589000009A03984FF480710491FDF7C5F8052034
:1058A0000290FFF7B9FD0199039800220592FDF7D8
:1058B000BBF80298FFF7B0FD03980499059AFDF72D
:1058C000B3F806B080BD000080B584B040F600405B
:1058D000C4F2010000904FF4007101910022FDF725
:1058E000A3F800984FF4807101220292FDF79CF812
:1058F00005200390FFF790FD00980199029AFDF7AB
:1059000093F80398FFF788FD04B080BD80B586B09A
:1059100040F60040C4F2010003904FF40071019181
:1059200001220092FDF780F802200490FFF774FD39
:10593000009A03984FF480710291FDF775F804986E
:10594000FFF76AFD01990398FDF756F802990246A0
:1059500003988DF817200022FDF766F80498FFF7EA
:105960005BFD9DF8170006B080BD000080B582B0D9
:105970008DF806008DF805108DF80420FFF77AFFEA
:105980009DF806004000C0B2FFF7FCFEFFF7BEFF27
:1059900030B1FFE7FFF798FF01208DF8070021E005
:1059A0009DF80500FFF7EEFEFFF7B0FF30B1FFE70F
:1059B000FFF78AFF02208DF8070013E09DF804002E
:1059C000FFF7E0FEFFF7A2FF30B1FFE7FFF77CFF34
:1059D00003208DF8070005E0FFF776FF00208DF823
:1059E0000700FFE79DF8070002B080BD80B584B0D6
:1059F000FDF732F8039040F60000C4F201002021C8
:105A0000FCF7FAFF8DF80B009DF80B00B0FA80F060
:105A100040098DF80A0040F25840C2F200000078B8
:105A200001460191062800F210810199DFE801F09A
:105A300004163A6B95D1EF009DF80A0068B1FFE7B4
:105A400040F25841C2F2000101200870039840F270
:105A50005C41C2F200010860FFE7F6E09DF80A0031
:105A6000C0B1FFE7039840F25C41C2F2000109684F
:105A7000401A14280DD3FFE7039840F2A841C2F260
:105A80000001086040F25841C2F200010220087093
:105A9000FFE706E040F25841C2F200010020087022
:105AA000FFE7D2E09DF80A0068B9FFE740F25841ED
:105AB000C2F2000103200870039840F25C41C2F278
:105AC000000108601EE0039840F2A841C2F2000104
:105AD0000968401AB0F57A7F13D3FFE740F26001FE
